:100000000C945D000C9485000C9485000C94850084
:100010000C9485000C9485000C9485000C9485004C
:100020000C9485000C9485000C9485000C94E804D5
:100030000C9485000C9485000C9485000C9485002C
:100040000C9427030C9485000C9497030C94710373
:100050000C9485000C9485000C9485000C9485000C
:100060000C94C9030C9485000000000800020100F4
:100070000003040700000000000000000000000072
:10008000250028002B0000000000240027002A0083
:10009000040404040404040402020202020203032E
:1000A0000303030301020408102040800102040836
:1000B0001020010204081020A40511241FBECFEF58
:1000C000D8E0DEBFCDBF11E0A0E0B1E0EAE4FFE0A0
:1000D00002C005900D92A432B107D9F722E0A4E244
:1000E000B1E001C01D92A339B207E1F710E0CDE500
:1000F000D0E004C02197FE010E949D07CC35D107B6
:10010000C9F70E9413060C94A3070C9400008F9269
:100110009F92AF92BF92FF920F931F93CF93DF9363
:10012000F09090022BE02F1508F44CC02091920221
:1001300008E512E0021B110927FD1395000F111F9E
:10014000000F111F20919102C8E8D0E0C21BD10915
:1001500027FDD395CC0FDD1FCC0FDD1F4E010D2EDB
:10016000000CAA08BB089801012E000C440B550B8B
:10017000281939094A095B09DC010E94580724EB58
:1001800030E040E050E00E942E07820E931EA41E35
:10019000B51E8C169D062CF0E801801691060CF415
:1001A000E4012297CC0FDD1F2FB7F8948F2D90E03C
:1001B000FC01EE0FFF1FE80FF91FE559FD4FD28339
:1001C000C1832FBFDF91CF911F910F91FF90BF90FF
:1001D000AF909F908F90089590E0FC01EC55FF4FF9
:1001E000249180579F4FFC018491882399F090E0DF
:1001F000880F991FFC01EA57FF4FA591B491FC01AC
:10020000E458FF4F859194918FB7F894EC91E22BCD
:10021000EC938FBF08950895CF93DF93AC01E091E5
:10022000B701F091B8013097F1F09091B60180914B
:10023000B5019817C0F090E0292F30E02617370756
:1002400054F4D901AB5DBE4F240F351FE90128815D
:100250002C939F5FF1CF1092B6016093B501CB0153
:10026000DF91CF910994DF91CF910895AF92BF9222
:10027000CF92DF92EF92FF920F931F93CF93DF9372
:100280006C017B018B01040F151FEB015E01AE18A1
:10029000BF08C017D10759F06991D601ED91FC91C3
:1002A0000190F081E02DC6010995892B79F7C501F0
:1002B000DF91CF911F910F91FF90EF90DF90CF9042
:1002C000BF90AF900895FC01538D448D252F30E0F1
:1002D000842F90E0821B930B541710F0CF96089553
:1002E00001970895FC01918D828D981761F0A28D80
:1002F000AE0FBF2FB11D5D968C91928D9F5F9F7346
:10030000928F90E008958FEF9FEF0895FC01918DFB
:10031000828D981731F0828DE80FF11D858D90E068
:1003200008958FEF9FEF0895FC01918D228D892F05
:1003300090E0805C9F4F821B91098F7399270895ED
:1003400082EC91E00E94940121E0892B09F420E0E5
:10035000822F089580E090E0892B29F00E94A0016F
:1003600081110C9400000895FC01A48DA80FB92FF1
:10037000B11DA35ABF4F2C91848D90E001968F73CD
:100380009927848FA689B7892C93A089B1898C91EC
:10039000837080648C93938D848D981306C002883B
:1003A000F389E02D80818F7D80830895EF92FF9205
:1003B0000F931F93CF93DF93EC0181E0888F9B8D88
:1003C0008C8D98131AC0E889F989808185FF15C042
:1003D0009FB7F894EE89FF896083E889F989808165
:1003E0008370806480839FBF81E090E0DF91CF9134
:1003F0001F910F91FF90EF900895F62E0B8D10E056
:100400000F5F1F4F0F731127E02E8C8D8E110CC0C4
:100410000FB607FCFACFE889F989808185FFF5CF0F
:10042000CE010E94B401F1CFEB8DEC0FFD2FF11D39
:10043000E35AFF4FF0829FB7F8940B8FEA89FB894C
:1004400080818062CFCFCF93DF93EC01888D8823AA
:10045000B9F0AA89BB89E889F9898C9185FD03C027
:10046000808186FD0DC00FB607FCF7CF8C9185FF0C
:10047000F2CF808185FFEDCFCE010E94B401E9CF9C
:10048000DF91CF91089590E0FC01E859FF4F24914E
:10049000FC01EC55FF4F3491FC01E057FF4FE49114
:1004A000EE23C9F0222339F0233001F1A8F42130E2
:1004B00019F1223029F1F0E0EE0FFF1FE458FF4F51
:1004C000A591B4918FB7F894EC91611126C0309545
:1004D0003E233C938FBF08952730A9F02830C9F000
:1004E000243049F7809180008F7D03C08091800087
:1004F0008F7780938000DFCF84B58F7784BDDBCF8B
:1005000084B58F7DFBCF8091B0008F778093B00052
:10051000D2CF8091B0008F7DF9CF3E2BDACF85ED21
:100520008093BC008091BC0084FDFCCF1092B2018E
:10053000089520916501260F3327331F213231059D
:10054000ECF42091B201FC0190E080E0243069F0ED
:1005500082E00895A09165012191AC014B5B5E4F53
:10056000A40FB52FB11D2C930196861798F3809197
:100570006501680F6093650180E0089581E008954A
:100580000895E091B6018091B501E81730F4F0E0EC
:10059000EB5DFE4F808190E008958FEF9FEF08950F
:1005A0009091B6018091B5012FEF3FEF981748F475
:1005B000E92FF0E0EB5DFE4F208130E09F5F9093EC
:1005C000B601C90108958091B5019091B601891BCA
:1005D000990B0895CF93DF93CB01EA01642F0E941A
:1005E0009902CE01DF91CF910895CF93DF931F92AF
:1005F000CDB7DEB7698361E0CE0101960E94990212
:1006000081E090E00F90DF91CF91089590E080E03D
:1006100008959091B5018091B6019817B9F08FE5D2
:1006200092E00E94D002813041F461E086E00E94B5
:10063000430284EB90E00C948700811107C060E0D6
:1006400086E00E94430290E080E0F5CF08951F927B
:100650000F920FB60F9211242F933F938F939F9376
:10066000AF93BF938091BE019091BF01A091C00153
:10067000B091C1013091BD0123E0230F2D3758F512
:100680000196A11DB11D2093BD018093BE019093E1
:10069000BF01A093C001B093C1018091B9019091B5
:1006A000BA01A091BB01B091BC010196A11DB11D81
:1006B0008093B9019093BA01A093BB01B093BC01A0
:1006C000BF91AF919F918F913F912F910F900FBE4E
:1006D0000F901F90189526E8230F0296A11DB11DBB
:1006E000D2CF1F920F920FB60F9211242F933F93E8
:1006F0004F935F936F937F938F939F93AF93BF932A
:10070000EF93FF9382EC91E00E94B401FF91EF918F
:10071000BF91AF919F918F917F916F915F914F9119
:100720003F912F910F900FBE0F901F9018951F9221
:100730000F920FB60F9211242F938F939F93EF93E5
:10074000FF93E091D201F091D3018081E091D80133
:10075000F091D90182FD1BC090818091DB018F5FF8
:100760008F732091DC01821741F0E091DB01F0E012
:10077000EE53FE4F958F8093DB01FF91EF919F9198
:100780008F912F910F900FBE0F901F901895808121
:10079000F4CF1F920F920FB60F9211242F933F9315
:1007A0004F935F936F937F938F939F93AF93BF9379
:1007B000EF93FF938091B900887F803609F44AC097
:1007C000F0F5883209F4A7C018F5803109F49BC010
:1007D000B8F4882309F4F9C0883009F494C0FF9173
:1007E000EF91BF91AF919F918F917F916F915F91A9
:1007F0004F913F912F910F900FBE0F901F90189522
:10080000883109F488C0803251F78093880114C080
:10081000803409F49DC040F48033B9F38833F9F68D
:100820008093880185ECB0C0803509F485C0883597
:1008300009F496C0883499F60E948F02D0CF883987
:1008400009F48CC038F5883729F050F4883611F057
:10085000803729F683E08093B2011092870157C058
:10086000883809F47BC0803919F0803809F0B7CF97
:1008700080918701803208F071C0E091870181E0AA
:100880008E0F809387018091BB00F0E0E959FE4F05
:1008900080833DC0803B39F0E0F4803A09F479C0B0
:1008A000883A09F09CCF84E08093B20110926601EF
:1008B00010926501E091AE01F091AF010995809130
:1008C000650181110FC081E080936501109245019F
:1008D00009C0803C09F4A6CF883C09F4A3CF883B2B
:1008E00009F07DCFE091660181E08E0F8093660173
:1008F000F0E0EB5BFE4F80818093BB00909166013E
:100900008091650129C08091AB018093BB0085EC8B
:100910008093BC0064CF9091AA018091A90198179F
:1009200058F5E091AA0181E08E0F8093AA01F0E0D2
:10093000E757FE4F8081E9CFE091AA0181E08E0F59
:100940008093AA018091BB00F0E0E757FE4F8083BF
:100950009091AA018091A9019817C8F285E8D8CF93
:10096000E091AA0181E08E0F8093AA018091BB00E3
:10097000F0E0E757FE4F80838091B10181115CCF99
:1009800081E08093B00184EA8093BC001092B201B0
:1009900026CF85EC8093BC001092B2018091870134
:1009A000803230F4E0918701F0E0E959FE4F108287
:1009B0006091870170E0E091AC01F091AD0187E6B4
:1009C00091E00995109287010ACF1092880134CFE7
:1009D0001F920F920FB60F9211242F933F934F93B4
:1009E0005F936F937F938F939F93AF93BF93CF93B7
:1009F000DF93EF93FF9380912401C0918F02D0E0A9
:100A000087FF24C0109285001092840080912401F9
:100A10008F5F8093240180912401082E000C990B94
:100A20008C179D0724F4809124018C30C4F18091AF
:100A3000840090918500049680349C4908F47AC023
:100A40008091840090918500049676C08091240165
:100A5000082E000C990B8C179D07C4F6E091240119
:100A60008E2FEE0F990BFC01EE0FFF1FE80FF91F01
:100A7000E559FD4F808186FFC9CFE09124018E2F7B
:100A8000EE0F990BFC01EE0FFF1FE80FF91FE55960
:100A9000FD4F808160E08F730E944302B7CF2091A9
:100AA000840030918500E09124018E2FEE0F990B88
:100AB000FC01EE0FFF1FE80FF91FE559FD4F818183
:100AC0009281820F931F9093890080938800E09118
:100AD00024018E2FEE0F990BFC01EE0FFF1FE80F84
:100AE000F91FE559FD4F808186FF11C0E091240177
:100AF0008E2FEE0F990BFC01EE0FFF1FE80FF91F71
:100B0000E559FD4F808161E08F730E944302FF91A0
:100B1000EF91DF91CF91BF91AF919F918F917F9195
:100B20006F915F914F913F912F910F900FBE0F905A
:100B30001F90189580E49CE9909389008093880029
:100B40008FEF80932401E3CF1092C5011092C4016E
:100B500088EE93E0A0E0B0E08093C6019093C701D7
:100B6000A093C801B093C90124E031E03093C301E0
:100B70002093C20125EC30E03093CF012093CE01C9
:100B800024EC30E03093D1012093D00120EC30E010
:100B90003093D3012093D20121EC30E03093D50182
:100BA0002093D40122EC30E03093D7012093D6017A
:100BB00026EC30E03093D9012093D8011092DB016C
:100BC0001092DC011092DD011092DE01109262029F
:100BD000109261028093630290936402A093650275
:100BE000B093660286E191E09093600280935F0289
:100BF00080918F028C3098F491E0980F90938F023F
:100C00008093900290E0FC01EE0FFF1FE80FF91FA8
:100C1000E559FD4F88EB9BE09283818308958FEF28
:100C2000809390020895789484B5826084BD84B5E1
:100C3000816084BD85B5826085BD85B5816085BDD7
:100C400080916E00816080936E001092810080918F
:100C50008100826080938100809181008160809317
:100C60008100809180008160809380008091B1003C
:100C700084608093B1008091B00081608093B00067
:100C800080917A00846080937A0080917A008260FB
:100C900080937A0080917A00816080937A008091BD
:100CA0007A00806880937A001092C1001092B60199
:100CB0001092B5011092B4011092B3011092B201DA
:100CC00081E08093B1011092B00161E082E10E9465
:100CD000430261E083E10E9443028091B9008E7F6C
:100CE0008093B9008091B9008D7F8093B90088E42A
:100CF0008093B80085E48093BC008BE091E09093F2
:100D0000AF018093AE018CE091E09093AD018093B0
:100D1000AC0180E18093BA0089E093E09093B80140
:100D20008093B701809190028C3008F050C084E02D
:100D30000E94EC0080919002282F30E0F901EE0F24
:100D4000FF1FE20FF31FE559FD4F9081907C9460E7
:100D5000908310929102109292022CE0622F0E94D6
:100D60009107829FB001112430E020E0AB01420FD7
:100D7000531FFA01EE0FFF1FE40FF51FE559FD4F5A
:100D8000908196FD16C02F5F3F4F2C30310571F7D3
:100D900081110FC01092800082E080938100109238
:100DA000850010928400B19A80916F0082608093D8
:100DB0006F00E09190028E2F90E0FC01EE0FFF1F7C
:100DC000E80FF91FE559FD4F80818064808390E032
:100DD00080E00E94870086E00E94EC00E091D20152
:100DE000F091D30182E08083E091CE01F091CF01B8
:100DF0001082E091D001F091D1018FEC80831092AC
:100E0000DA01E091D601F091D70186E08083E0918C
:100E1000D401F091D501808180618083E091D4017B
:100E2000F091D501808188608083E091D401F091B8
:100E3000D501808180688083E091D401F091D50153
:100E400080818F7D8083C0E0D0E02097F1F30E9405
:100E5000A0018823D1F30E940000F7CF052E97FB55
:100E60001EF400940E94450757FD07D00E946007BA
:100E700007FC03D04EF40C944507509540953095EF
:100E800021953F4F4F4F5F4F0895909580957095F6
:100E900061957F4F8F4F9F4F08950E948207A59FB6
:100EA000900DB49F900DA49F800D911D1124089565
:100EB000B7FF0C944D070E944D07821B930B0895BA
:100EC000A1E21A2EAA1BBB1BFD010DC0AA1FBB1F4E
:100ED000EE1FFF1FA217B307E407F50720F0A21BC0
:100EE000B30BE40BF50B661F771F881F991F1A942D
:100EF00069F760957095809590959B01AC01BD0157
:100F0000CF010895A29FB001B39FC001A39F700DB0
:100F1000811D1124911DB29F700D811D1124911D01
:100F20000895991B79E004C0991F961708F0961B45
:100F3000881F7A95C9F780950895EE0FFF1F0590D9
:0A0F4000F491E02D0994F894FFCF1E
:100F4A0000000000D60136016301230294017201F8
:100F5A00860100000000F502EA020603C002E3026D
:040F6A00D002C102EE
:107E0000112484B714BE81FFF0D085E080938100F7
:107E100082E08093C00088E18093C10086E0809377
:107E2000C20080E18093C4008EE0C9D0259A86E02C
:107E300020E33CEF91E0309385002093840096BBD3
:107E4000B09BFECF1D9AA8958150A9F7CC24DD24C4
:107E500088248394B5E0AB2EA1E19A2EF3E0BF2EE7
:107E6000A2D0813461F49FD0082FAFD0023811F036
:107E7000013811F484E001C083E08DD089C08234E0
:107E800011F484E103C0853419F485E0A6D080C0E4
:107E9000853579F488D0E82EFF2485D0082F10E0AE
:107EA000102F00270E291F29000F111F8ED06801E7
:107EB0006FC0863521F484E090D080E0DECF843638
:107EC00009F040C070D06FD0082F6DD080E0C81688
:107ED00080E7D80618F4F601B7BEE895C0E0D1E017
:107EE00062D089930C17E1F7F0E0CF16F0E7DF06D8
:107EF00018F0F601B7BEE89568D007B600FCFDCFD4
:107F0000A601A0E0B1E02C9130E011968C91119780
:107F100090E0982F8827822B932B1296FA010C0160
:107F200087BEE89511244E5F5F4FF1E0A038BF0790
:107F300051F7F601A7BEE89507B600FCFDCF97BE46
:107F4000E89526C08437B1F42ED02DD0F82E2BD052
:107F50003CD0F601EF2C8F010F5F1F4F84911BD097
:107F6000EA94F801C1F70894C11CD11CFA94CF0C13
:107F7000D11C0EC0853739F428D08EE10CD085E9AC
:107F80000AD08FE07ACF813511F488E018D01DD067
:107F900080E101D065CF982F8091C00085FFFCCF94
:107FA0009093C60008958091C00087FFFCCF809118
:107FB000C00084FD01C0A8958091C6000895E0E648
:107FC000F0E098E1908380830895EDDF803219F02E
:107FD00088E0F5DFFFCF84E1DECF1F93182FE3DFCA
:107FE0001150E9F7F2DF1F91089580E0E8DFEE27F6
:047FF000FF270994CA
:027FFE00040479
:0400000300007E007B
:00000001FF
