:100000000C9462000C948A000C948A000C948A0070
:100010000C948A000C948A000C948A000C948A0038
:100020000C948A000C948A000C948A000C948A0028
:100030000C948A000C948A000C948A000C948A0018
:100040000C9414060C948A000C94E2050C94BC05E4
:100050000C948A000C948A000C948A000C948A00F8
:100060000C945E060C948A00000000002400270017
:100070002A0000000000250028002B0000000000DE
:1000800023002600290004040404040404040202DA
:100090000202020203030303030301020408102007
:1000A0004080010204081020010204081020000012
:1000B0000008000201000003040700000000000027
:1000C00000007D0711241FBECFEFD8E0DEBFCDBFFB
:1000D00011E0A0E0B1E0EAE8FBE102C005900D927A
:1000E000A037B107D9F723E0A0E7B1E001C01D9226
:1000F000A131B207E1F710E0C2E6D0E004C02197D9
:10010000FE010E94980CC136D107C9F70E94D3079F
:100110000C94C30D0C94000020914B0281E021321D
:1001200008F044C0809127028111FCCF80914A02DF
:1001300092E09093270291E0909326029FEF909394
:1001400025021092240220932302AAE2B2E0E3E007
:10015000F2E090E0291331C0109202029091020265
:10016000880F892B8093020280910102813049F52A
:1001700010920102809102028093BB008091BC002A
:1001800083FDF8CF85EC8093BC00809127028230FC
:10019000E1F3809125028F3FB1F0809125028032FA
:1001A000A1F080912502803391F084E01092290221
:1001B00010924B021092280208953D9131939F5F57
:1001C000C9CF85EEE0CF80E0F1CF82E0EFCF83E0D2
:1001D000EDCF08950895AF92BF92CF92DF92EF9244
:1001E000FF920F931F93CF93DF936C017B018B01E1
:1001F000040F151FEB015E01AE18BF08C017D10731
:1002000059F06991D601ED91FC910190F081E02DBA
:10021000C6010995892B79F7C501DF91CF911F910F
:100220000F91FF90EF90DF90CF90BF90AF90089527
:10023000FC01538D448D252F30E0842F90E0821BEC
:10024000930B541710F0CF96089501970895FC0171
:10025000918D828D981761F0A28DAE0FBF2FB11DC9
:100260005D968C91928D9F5F9F73928F90E0089521
:100270008FEF9FEF0895FC01918D828D981731F0DB
:10028000828DE80FF11D858D90E008958FEF9FEF2F
:100290000895FC01918D228D892F90E0805C9F4F05
:1002A000821B91098F73992708958CE492E00E9434
:1002B000490121E0892B09F420E0822F089580E094
:1002C00090E0892B29F00E94550181110C940000C7
:1002D0000895FC01A48DA80FB92FB11DA35ABF4FDB
:1002E0002C91848D90E001968F739927848FA68935
:1002F000B7892C93A089B1898C91837080648C9389
:10030000938D848D981306C00288F389E02D808137
:100310008F7D80830895EF92FF920F931F93CF9369
:10032000DF93EC0181E0888F9B8D8C8D98131AC030
:10033000E889F989808185FF15C09FB7F894EE8917
:10034000FF896083E889F989808183708064808374
:100350009FBF81E090E0DF91CF911F910F91FF90BF
:10036000EF900895F62E0B8D10E00F5F1F4F0F7367
:100370001127E02E8C8D8E110CC00FB607FCFACF22
:10038000E889F989808185FFF5CFCE010E94690156
:10039000F1CFEB8DEC0FFD2FF11DE35AFF4FF082F3
:1003A0009FB7F8940B8FEA89FB8980818062CFCF59
:1003B000CF93DF93EC01888D8823B9F0AA89BB899C
:1003C000E889F9898C9185FD03C0808186FD0DC087
:1003D0000FB607FCF7CF8C9185FFF2CF808185FFA8
:1003E000EDCFCE010E946901E9CFDF91CF91089551
:1003F000833081F028F4813099F08230A9F008959B
:100400008730A9F08830C9F08430B1F48091800041
:100410008F7D03C0809180008F7780938000089546
:1004200084B58F7784BD089584B58F7DFBCF80918F
:10043000B0008F778093B00008958091B0008F7DD9
:10044000F9CFCF93DF93282F30E0F901E255FF4F2A
:100450008491F901E656FF4FD491F901EA57FF4F15
:10046000C491CC23A1F081110E94F801EC2FF0E09F
:10047000EE0FFF1FE458FF4FA591B491EC91ED23CF
:1004800081E090E009F480E0DF91CF91089580E071
:1004900090E0FACF1F93CF93DF93282F30E0F9013C
:1004A000E255FF4F8491F901E656FF4FD491F901CF
:1004B000EA57FF4FC491CC23A9F0162F81110E9457
:1004C000F801EC2FF0E0EE0FFF1FEE58FF4FA59163
:1004D000B4918FB7F894EC91111108C0D095DE2338
:1004E000DC938FBFDF91CF911F910895DE2BF8CF62
:1004F000CF93DF9390E0FC01E656FF4F24918A579B
:100500009F4FFC0184918823C9F090E0880F991FC8
:10051000FC01E859FF4FA591B491FC01EE58FF4F43
:10052000C591D49161110DC09FB7F8948C9120951D
:1005300082238C938881282328839FBFDF91CF91CA
:100540000895623051F49FB7F8943C91822F8095C2
:1005500083238C93E8812E2BEFCF8FB7F894EC9107
:100560002E2B2C938FBFEACF8E3008F08E508770E1
:10057000806480937C0080917A00806480937A000C
:1005800080917A0086FDFCCF80917800909179006F
:10059000089585ED8093BC008091BC0084FDFCCF64
:1005A0001092270208952091B001260F3327331FA0
:1005B00021323105ECF420912702FC0190E080E02B
:1005C000243069F082E00895A091B0012191AC013E
:1005D00040575E4FA40FB52FB11D2C93019686177F
:1005E00098F38091B001680F6093B00180E00895A6
:1005F00081E008950895E091E1018091E001E8171C
:1006000030F4F0E0E059FE4F808190E008958FEFE4
:100610009FEF08959091E1018091E0012FEF3FEF6E
:10062000981748F4E92FF0E0E059FE4F208130E0C0
:100630009F5F9093E101C90108958091E00190913D
:10064000E101891B990B0895CF92DF92EF92FF92FF
:100650000F931F93CF93DF937C01CB018A012091ED
:100660002802222389F0EB016B01C40ED51ECC15A4
:10067000DD0569F06991D701ED91FC910190F08160
:10068000E02DC7010995F3CF642F0E94D302C80162
:10069000DF91CF911F910F91FF90EF90DF90CF905E
:1006A0000895CF93DF931F92CDB7DEB76983209172
:1006B00028022223F9F020914B02203258F021E049
:1006C00030E0FC013383228390E080E00F90DF91E3
:1006D000CF91089580912902E82FF0E0E65DFD4F6B
:1006E000998190838F5F8093290280934B0281E0F0
:1006F00090E0ECCF61E0CE0101960E94D302F7CFEB
:10070000089590E080E00895FC0144815581668160
:1007100077812FB7F8948091D8019091D901A09159
:10072000DA01B091DB012FBF481759076A077B0731
:10073000C8F48FB7F8944091D8015091D9016091D5
:10074000DA017091DB018FBF80819181A281B38139
:10075000840F951FA61FB71F84839583A683B78335
:1007600081E0089580E00895FC0140835183628315
:1007700073832FB7F8944091D8015091D9016091BB
:10078000DA017091DB012FBF448355836683778341
:100790000895CF93DF93EC0160E08E810E944A02BE
:1007A00061E08E810E944A0260E08E810E944A02CE
:1007B0008BE891E00197F1F7DF91CF910895CF9207
:1007C000DF92EF92FF920F931F93CF93DF936C0111
:1007D0007C0187E0E80EF11CD0E0C0E0062F10E0BD
:1007E000B8010C2E02C0759567950A94E2F7617006
:1007F000F70181917F010E944A022196C430D10500
:1008000079F7C601DF91CF911F910F91FF90EF9083
:10081000DF90CF900C94C903CF92DF92EF92FF92BA
:100820000F931F93CF93DF93EC01F62E642F8C81EF
:100830000E944A028D818F3F19F060E00E944A02B7
:100840000F2D10E08F8584FF25C06E0187E0C80E54
:10085000D11CF12CE12CB8010E2C02C075956795C6
:100860000A94E2F76170F60181916F010E944A02D9
:10087000FFEFEF1AFF0A88E0E816F10461F7CE01F6
:10088000DF91CF911F910F91FF90EF90DF90CF906C
:100890000C94C903B80184E0759567958A95E1F7D2
:1008A000CE010E94DF036F2DCE01DF91CF911F910A
:1008B0000F91FF90EF90DF90CF900C94DF0340E01A
:1008C000682F85EF92E00C940C04CF93DF93823075
:1008D00029F4909104039860909304038093080393
:1008E0001092090380E480930A0380E180930B0354
:1008F00080E580930C0361E08091F9020E94780208
:100900008091FA028F3F19F061E00E94780261E065
:100910008091FB020E947802C5EFD2E09E01255F24
:1009200032408091040384FD0BC084E090E0219666
:100930002817390744F461E08E810E947802EECFD7
:1009400088E090E0F4CF8BE39DE00197F1F760E061
:100950008091F9020E944A0260E08091FB020E94AD
:100960004A028091FA028F3F19F060E00E944A0229
:100970008091040384FD39C063E085EF92E00E941A
:10098000DF03CBE4D6E4CE010197F1F763E085EF16
:1009900092E00E94DF032197F1F763E085EF92E098
:1009A0000E94DF0383E592E00197F1F762E085EFB3
:1009B00092E00E94DF038091040380620E945F0442
:1009C00084E0809305038CE00E945F0481E00E9434
:1009D0005F048BE39FE10197F1F782E080930603C8
:1009E00086E0DF91CF910C945F0480620E945F04E7
:1009F0008BE496E40197F1F78091040380620E94F2
:100A00005F0483E592E00197F1F78091040380622F
:100A10000E945F04D0CF90910803691710F06FEF28
:100A2000690FE62FF0E0EB50FD4F9489890F806845
:100A30000C945F0441E00E940C0481E090E0089572
:100A4000FB0101900020E9F73197AF01461B570BDE
:100A5000DC01ED91FC910280F381E02D09944F922D
:100A60005F926F927F928F929F92AF92BF92CF923E
:100A7000DF92EF92FF920F931F93CF93DF93CDB747
:100A8000DEB7A1970FB6F894DEBF0FBECDBF8C01C5
:100A90006B01770FEE08FF08F7FE49C0DC01ED910E
:100AA000FC910190F081E02D6DE209955C01222717
:100AB0003327A9012C193D094E095F0919A2FE012E
:100AC000B1967F019AE0492E512C612C712CCA01FC
:100AD000B901A30192010E94760C605DD7016E936B
:100AE0007D01211531054105510589F790E080E030
:100AF000109721F0BD01C8010E9420058A0D9B1DA1
:100B0000A1960FB6F894DEBF0FBECDBFDF91CF9197
:100B10001F910F91FF90EF90DF90CF90BF90AF901B
:100B20009F908F907F906F905F904F900895A70156
:100B3000960119A2FE01B1967F018AE0882E912CC0
:100B4000A12CB12CCA01B901A50194010E94760C17
:100B5000605DD7016E937D01211531054105510579
:100B600089F790E080E0109759F2BD01C8010E941A
:100B70002005C6CF0C9420051F920F920FB60F923E
:100B800011242F933F934F935F936F937F938F9392
:100B90009F93AF93BF93EF93FF938CE492E00E94F7
:100BA0006901FF91EF91BF91AF919F918F917F91DB
:100BB0006F915F914F913F912F910F900FBE0F90CA
:100BC0001F9018951F920F920FB60F9211242F931A
:100BD0008F939F93EF93FF93E0915C02F0915D02FE
:100BE0008081E0916202F091630282FD1BC09081DE
:100BF000809165028F5F8F7320916602821741F0AA
:100C0000E0916502F0E0E45BFD4F958F8093650213
:100C1000FF91EF919F918F912F910F900FBE0F90A9
:100C20001F9018958081F4CF1F920F920FB60F92EC
:100C300011242F933F938F939F93AF93BF938091F2
:100C4000D8019091D901A091DA01B091DB013091E6
:100C5000D70123E0230F2D3758F50196A11DB11DB3
:100C60002093D7018093D8019093D901A093DA0102
:100C7000B093DB018091D3019091D401A091D50173
:100C8000B091D6010196A11DB11D8093D30190931F
:100C9000D401A093D501B093D601BF91AF919F919C
:100CA0008F913F912F910F900FBE0F901F9018952D
:100CB00026E8230F0296A11DB11DD2CF1F920F92DD
:100CC0000FB60F9211242F933F934F935F936F931F
:100CD0007F938F939F93AF93BF93EF93FF938091F5
:100CE000B900887F803609F44AC0F0F5883209F4EB
:100CF000A7C018F5803109F49BC0B8F4882309F423
:100D0000F9C0883009F494C0FF91EF91BF91AF9181
:100D10009F918F917F916F915F914F913F912F9113
:100D20000F900FBE0F901F901895883109F488C05E
:100D3000803251F78093250214C0803409F49DC09D
:100D400040F48033B9F38833F9F68093250285ECBB
:100D5000B0C0803509F485C0883509F496C0883460
:100D600099F60E94C902D0CF883909F48CC038F5B1
:100D7000883729F050F4883611F0803729F683E05F
:100D8000809327021092D20157C0883809F47BC0A3
:100D9000803919F0803809F0B7CF8091D2018032C4
:100DA00008F071C0E091D20181E08E0F8093D201F2
:100DB0008091BB00F0E0EE54FE4F80833DC0803B4D
:100DC00039F0E0F4803A09F479C0883A09F09CCF10
:100DD00084E0809327021092B1011092B001E0915B
:100DE000DE01F091DF0109958091B00181110FC002
:100DF00081E08093B0011092900109C0803C09F419
:100E0000A6CF883C09F4A3CF883B09F07DCFE091C1
:100E1000B10181E08E0F8093B101F0E0E057FE4F09
:100E200080818093BB009091B1018091B00129C075
:100E3000809102028093BB0085EC8093BC0064CF5C
:100E40009091240280912302981758F5E091240292
:100E500081E08E0F80932402F0E0ED5FFD4F8081F2
:100E6000E9CFE091240281E08E0F809324028091EB
:100E7000BB00F0E0ED5FFD4F8083909124028091F4
:100E800023029817C8F285E8D8CFE091240281E0C8
:100E90008E0F809324028091BB00F0E0ED5FFD4F48
:100EA00080838091260281115CCF81E080930102D2
:100EB00084EA8093BC001092270226CF85EC8093B1
:100EC000BC00109227028091D201803230F4E09170
:100ED000D201F0E0EE54FE4F10826091D20170E03A
:100EE000E091DC01F091DD0182EB91E00995109237
:100EF000D2010ACF1092250234CFECE4F2E0138243
:100F0000128288EE93E0A0E0B0E084839583A6830C
:100F1000B7832AE031E03183208325EC30E0358748
:100F2000248724EC30E03787268720EC30E0318BB3
:100F3000208B21EC30E0338B228B22EC30E0358BA0
:100F4000248B26EC30E0378B268B118E128E138E7D
:100F5000148EE9EEF2E01382128284839583A683D5
:100F6000B7838CE191E091838083E5EFF2E0138217
:100F700012828EE291E09183808383E084838FEFFD
:100F8000858382E0868388E0878389E080878AE0A2
:100F900081878BE0828713861486158616861786CE
:100FA00081E00C946504789484B5826084BD84B536
:100FB000816084BD85B5826085BD85B5816085BD54
:100FC00080916E00816080936E001092810080910C
:100FD0008100826080938100809181008160809394
:100FE0008100809180008160809380008091B100B9
:100FF00084608093B1008091B00081608093B000E4
:1010000080917A00846080937A0080917A00826077
:1010100080937A0080917A00816080937A00809139
:101020007A00806880937A001092C10082E00E946A
:10103000650466E371E085EF92E00E94BA0561E025
:1010400080E00E940B056DE371E085EF92E00E9465
:10105000BA0560E08EE00E94780260E08FE00E94B6
:10106000780261E08CE00E94780261E08DE00E94ED
:10107000780262E085E00E9478021092FB011092F3
:10108000FA011092E1011092E001109229021092EF
:101090004B021092270281E08093260210920102F7
:1010A00061E082E10E944A0261E083E10E944A021B
:1010B0008091B9008E7F8093B9008091B9008D7FB7
:1010C0008093B90088E48093B80085E48093BC00E5
:1010D00089EE90E09093DF018093DE018AEE90E04C
:1010E0009093DD018093DC0188E090E00E949E0CEB
:1010F000EC0148EE53E060E070E00E94B403D0934E
:10110000EB01C093EA0188E090E00E949E0CEC01A4
:1011100048EE53E060E070E00E94B403D093E50134
:10112000C093E40188E090E00E949E0CEC014AEF3D
:1011300050E060E070E00E94B403D093EF01C093F0
:10114000EE0188E090E00E949E0CEC014AEF50E036
:1011500060E070E00E94B403D093E901C093E8011D
:1011600088E090E00E949E0CEC0144E650E060E0D4
:1011700070E00E94B403D093E701C093E60188E0D9
:1011800090E00E949E0CEC0144E650E060E070E0CC
:101190000E94B403D093E301C093E20188E090E0A1
:1011A0000E949E0CEC014AE050E060E070E00E947A
:1011B000B403D093F901C093F80188E090E00E9455
:1011C0009E0C4AE050E060E070E00E94B403E091C1
:1011D0005C02F0915D0282E08083E0915802F09120
:1011E00059021082E0915A02F0915B028FEC8083E9
:1011F00010926402E0916002F091610286E08083C7
:10120000E0915E02F0915F02808180618083E091D5
:101210005E02F0915F02808188608083E0915E02CF
:10122000F0915F02808180688083E0915E02F0919E
:101230005F0280818F7D808388248A9443E0942E8E
:10124000A12CB12CC0E0D0E011E08EE00E94B402ED
:10125000909300028093FF018FE00E94B40290936C
:10126000FE018093FD0185E00E942102892B09F097
:1012700035C18091FC01811131C181E090E0209164
:10128000FA013091FB01232B11F090E080E0909364
:10129000FB018093FA011093FC018091F801909179
:1012A000F9010E948403882309F48AC06091FF0138
:1012B000709100028091F6019091F701681779070B
:1012C00091F1072E000C880B990B33E0660F771F06
:1012D000881F991F3A95D1F7A50194010E94570CD8
:1012E00069017A0182E0C80ED11CE11CF11CD09288
:1012F000F501C092F40160E08AE0C816D1040CF058
:10130000FBC086E00E940B05B60185EF92E00E94CB
:101310002F0560E087E00E940B0565E671E085EF30
:1013200092E00E94BA056091FD017091FE018091EA
:10133000F2019091F3016817790791F1072E000CE3
:10134000880B990B23E0660F771F881F991F2A953A
:10135000D1F7A50194010E94570C69017A0182E03E
:10136000C80ED11CE11CF11CD092F101C092F00119
:1013700061E08AE0C816D1040CF0C7C087E00E9483
:101380000B05B60185EF92E00E942F0561E088E031
:101390000E940B0565E671E085EF92E00E94BA05B8
:1013A0008091FF01909100029093F7018093F601E4
:1013B0008091FD019091FE019093F3018093F201E1
:1013C0008091FA019091FB01019709F0E0C18091B1
:1013D000F4019091F501181619060CF0D8C180910E
:1013E000F0019091F101181619060CF0D0C180910E
:1013F000EE019091EF01892B51F065E471E08CE4EE
:1014000092E00E94BA0561E08CE00E944A02E090FE
:10141000EE01F090EF01C7010E9484032091EC01DE
:101420003091ED01882309F479C0EF2809F0A2C0BA
:10143000E090EA01F090EB01C7010E948403209143
:10144000EC013091ED01882351F0E114F10439F001
:101450008091EE019091EF01892B09F492C0809167
:10146000F4019091F5012817390709F090C0EF2891
:1014700009F48DC08091EE019091EF01892B09F064
:1014800086C01093280288E080934A0210922902B5
:1014900010924B0260E089EE92E00E9451030E949C
:1014A0008C006BE471E08CE492E00E94BA056091DC
:1014B000EC017091ED018CE492E00E942F051092F6
:1014C000ED011092EC018091EA019091EB010E94F4
:1014D0003A0D1092EB011092EA0159C085E00E948A
:1014E0002102019709F0D9CE8091FC01882309F4EB
:1014F000D4CE1092FC01D1CE86E00E940B05B6013D
:1015000085EF92E00E942F050ECF87E00E940B0529
:10151000B60185EF92E00E942F0542CF22303105BF
:1015200009F086CFEF2809F483CF1093280288E0D2
:1015300080934A021092290210924B0262E089EED7
:1015400092E00E9451030E948C0064E571E08CE4FB
:1015500092E00E94BA051092ED011092EC01809188
:10156000EE019091EF010E943A0D1092EF0110925E
:10157000EE015ECF2F5F3F4F3093ED012093EC01E2
:1015800057CF2F5F3F4F3093ED012093EC01E09058
:10159000E801F090E901C7010E9484032091EC0169
:1015A0003091ED01882309F476C0EF2869F080912D
:1015B000EA019091EB01892B09F06AC12F5F3F4F3F
:1015C0003093ED012093EC01E090E601F090E7010B
:1015D000C7010E9484032091EC013091ED01882322
:1015E00009F486C0EF2869F08091E8019091E90143
:1015F000892B09F052C12F5F3F4F3093ED012093AB
:10160000EC01E090E401F090E501C7010E94840341
:101610002091EC013091ED01882351F0E114F104A7
:1016200039F08091E6019091E701892B09F48DC092
:101630008091F0019091F1018217930709F08BC01E
:10164000EF2809F488C08091E6019091E701892B89
:1016500009F081C060E08DE00E944A0267E671E017
:101660008CE492E00E94BA056091EC017091ED016A
:101670008CE492E00E942F051092ED011092EC0193
:101680008091E4019091E5010E943A0D1092E501EC
:101690001092E40160C02230310509F095CFEF28A7
:1016A00009F492CF8091EA019091EB01892B09F026
:1016B0008BCF60E08CE00E944A0263E571E08CE42D
:1016C00092E00E94BA0569E571E08CE492E00E9424
:1016D000BA051092ED011092EC018091E801909111
:1016E000E9010E943A0D1092E9011092E8016CCFD5
:1016F0002230310509F085CFEF2809F482CF80919F
:10170000E8019091E901892B09F07BCF61E08DE040
:101710000E944A0261E671E08CE492E00E94BA0500
:1017200065E471E08CE492E00E94BA051092ED014C
:101730001092EC018091E6019091E7010E943A0D30
:101740001092E7011092E6015CCF2F5F3F4F30937C
:10175000ED012093EC01E090E201F090E301C7017C
:101760000E9484032091EC013091ED018823D1F097
:10177000EF2869F08091E4019091E501892B09F04F
:1017800091C02F5F3F4F3093ED012093EC012097E4
:1017900009F45BCD0E945501882309F456CD0E94BF
:1017A000000053CD2230310591F7EF2881F380916D
:1017B000E4019091E501892B51F761E671E08CE439
:1017C00092E00E94BA051092ED011092EC01809116
:1017D000E2019091E3010E943A0D88E090E00E94BE
:1017E0009E0C7C0148EE53E060E070E00E94B40380
:1017F000F092EB01E092EA0188E090E00E949E0CFA
:101800007C0148EE53E060E070E00E94B403F09287
:10181000E501E092E40188E090E00E949E0C7C01EA
:101820004AEF50E060E070E00E94B403F092EF01F4
:10183000E092EE0188E090E00E949E0C7C014AEF6D
:1018400050E060E070E00E94B403F092E901E092A1
:10185000E80188E090E00E949E0C7C0144E650E0A4
:1018600060E070E00E94B403F092E701E092E601CC
:1018700088E090E00E949E0C7C0144E650E060E02D
:1018800070E00E94B403F092E301E092E2017FCFA6
:101890002230310509F098CE05CF2230310509F00C
:1018A000B0CE2DCF2230310509F071CF80CF052E7B
:1018B00097FB1EF400940E946E0C57FD07D00E9407
:1018C000760C07FC03D04EF40C946E0C50954095AA
:1018D000309521953F4F4F4F5F4F089590958095DC
:1018E000709561957F4F8F4F9F4F0895A1E21A2EFB
:1018F000AA1BBB1BFD010DC0AA1FBB1FEE1FFF1FB4
:10190000A217B307E407F50720F0A21BB30BE40B03
:10191000F50B661F771F881F991F1A9469F760954A
:101920007095809590959B01AC01BD01CF01089504
:10193000EE0FFF1F0590F491E02D09940F931F9374
:10194000CF93DF938230910510F482E090E0E09134
:101950000F03F091100330E020E0B0E0A0E03097FA
:1019600099F42115310509F44AC0281B390B24309C
:101970003105D8F58A819B816115710589F1FB01DB
:1019800093838283FE0111C04081518102811381C2
:1019900048175907E0F04817590799F4109761F074
:1019A00012960C93129713961C933296CF01DF91E7
:1019B000CF911F910F91089500930F03109310037F
:1019C000F4CF2115310551F04217530738F0A90122
:1019D000DB019A01BD01DF01F801C1CFEF01F9CFB1
:1019E0009093100380930F03CDCFFE01E20FF31FFE
:1019F000819391932250310939832883D7CF209145
:101A00000D0330910E03232B41F4209102013091FC
:101A1000030130930E0320930D03209100013091B8
:101A200001012115310541F42DB73EB74091040164
:101A300050910501241B350BE0910D03F0910E032D
:101A4000E217F307A0F42E1B3F0B2817390778F095
:101A5000AC014E5F5F4F2417350748F04E0F5F1FF4
:101A600050930E0340930D03819391939FCFF0E029
:101A7000E0E09CCFCF93DF930097E9F0FC01329731
:101A800013821282A0910F03B0911003ED0130E098
:101A900020E01097A1F420813181820F931F2091C3
:101AA0000D0330910E032817390709F061C0F09338
:101AB0000E03E0930D03DF91CF910895EA01CE1755
:101AC000DF07E8F54A815B819E0141155105B1F7B9
:101AD000E901FB83EA8349915991C40FD51FEC17A3
:101AE000FD0761F4808191810296840F951FE901C1
:101AF00099838883828193819B838A83F0E0E0E0ED
:101B000012968D919C9113970097B9F52D913C9168
:101B10001197CD010296820F931F20910D033091F2
:101B20000E032817390739F6309751F51092100334
:101B300010920F03B0930E03A0930D03BCCFD38379
:101B4000C28340815181840F951FC817D90761F462
:101B50004E5F5F4F88819981480F591F51834083A1
:101B60008A819B81938382832115310509F0B0CF4F
:101B7000F0931003E0930F039ECFFD01DC01C0CF73
:0A1B800013821282D7CFF894FFCF32
:101B8A00000011038000000000008B01EB00180127
:101B9A00D801490127013B01000000005103240339
:101BAA008103FA021D030A03FB02000000001A0562
:101BBA00EB008103800350726573733A00416C69CC
:101BCA0076696F3A0061627265200070726573739C
:101BDA003A20002035303020002066656368612095
:101BEA0000203230302000616C6976696F3A20003B
:107E0000112484B714BE81FFF0D085E080938100F7
:107E100082E08093C00088E18093C10086E0809377
:107E2000C20080E18093C4008EE0C9D0259A86E02C
:107E300020E33CEF91E0309385002093840096BBD3
:107E4000B09BFECF1D9AA8958150A9F7CC24DD24C4
:107E500088248394B5E0AB2EA1E19A2EF3E0BF2EE7
:107E6000A2D0813461F49FD0082FAFD0023811F036
:107E7000013811F484E001C083E08DD089C08234E0
:107E800011F484E103C0853419F485E0A6D080C0E4
:107E9000853579F488D0E82EFF2485D0082F10E0AE
:107EA000102F00270E291F29000F111F8ED06801E7
:107EB0006FC0863521F484E090D080E0DECF843638
:107EC00009F040C070D06FD0082F6DD080E0C81688
:107ED00080E7D80618F4F601B7BEE895C0E0D1E017
:107EE00062D089930C17E1F7F0E0CF16F0E7DF06D8
:107EF00018F0F601B7BEE89568D007B600FCFDCFD4
:107F0000A601A0E0B1E02C9130E011968C91119780
:107F100090E0982F8827822B932B1296FA010C0160
:107F200087BEE89511244E5F5F4FF1E0A038BF0790
:107F300051F7F601A7BEE89507B600FCFDCF97BE46
:107F4000E89526C08437B1F42ED02DD0F82E2BD052
:107F50003CD0F601EF2C8F010F5F1F4F84911BD097
:107F6000EA94F801C1F70894C11CD11CFA94CF0C13
:107F7000D11C0EC0853739F428D08EE10CD085E9AC
:107F80000AD08FE07ACF813511F488E018D01DD067
:107F900080E101D065CF982F8091C00085FFFCCF94
:107FA0009093C60008958091C00087FFFCCF809118
:107FB000C00084FD01C0A8958091C6000895E0E648
:107FC000F0E098E1908380830895EDDF803219F02E
:107FD00088E0F5DFFFCF84E1DECF1F93182FE3DFCA
:107FE0001150E9F7F2DF1F91089580E0E8DFEE27F6
:047FF000FF270994CA
:027FFE00040479
:0400000300007E007B
:00000001FF
