:100000000C9462000C948A000C948A000C948A0070
:100010000C948A000C948A000C948A000C948A0038
:100020000C948A000C948A000C948A000C948A0028
:100030000C948A000C948A000C948A000C948A0018
:100040000C9402050C948A000C94D0040C94AA041D
:100050000C948A000C948A000C948A000C948A00F8
:100060000C948A000C948A000000000024002700F1
:100070002A0000000000250028002B0000000000DE
:1000800023002600290004040404040404040202DA
:100090000202020203030303030301020408102007
:1000A0004080010204081020010204081020000012
:1000B0000008000201000003040700000000000027
:1000C00000004C0511241FBECFEFD8E0DEBFCDBF2E
:1000D00011E0A0E0B1E0ECE5F5E102C005900D9281
:1000E000A633B107D9F722E0A6E3B1E001C01D9223
:1000F000A531B207E1F710E0C2E6D0E004C02197D5
:10010000FE010E948109C136D107C9F70E949605F8
:100110000C94AC0A0C940000AF92BF92CF92DF9285
:10012000EF92FF920F931F93CF93DF936C017B01AC
:100130008B01040F151FEB015E01AE18BF08C0173D
:10014000D10759F06991D601ED91FC910190F081B0
:10015000E02DC6010995892B79F7C501DF91CF9173
:100160001F910F91FF90EF90DF90CF90BF90AF90D5
:100170000895FC01538D448D252F30E0842F90E0AD
:10018000821B930B541710F0CF9608950197089592
:10019000FC01918D828D981761F0A28DAE0FBF2F5B
:1001A000B11D5D968C91928D9F5F9F73928F90E0B1
:1001B00008958FEF9FEF0895FC01918D828D981720
:1001C00031F0828DE80FF11D858D90E008958FEF5D
:1001D0009FEF0895FC01918D228D892F90E0805C26
:1001E0009F4F821B91098F73992708958CE591E0A9
:1001F0000E94EA0021E0892B09F420E0822F089573
:1002000080E090E0892B29F00E94F60081110C9487
:1002100000000895FC01A48DA80FB92FB11DA35AA9
:10022000BF4F2C91848D90E001968F739927848F16
:10023000A689B7892C93A089B1898C918370806439
:100240008C93938D848D981306C00288F389E02DDA
:1002500080818F7D80830895EF92FF920F931F938B
:10026000CF93DF93EC0181E0888F9B8D8C8D981369
:100270001AC0E889F989808185FF15C09FB7F89475
:10028000EE89FF896083E889F989808183708064C1
:1002900080839FBF81E090E0DF91CF911F910F910C
:1002A000FF90EF900895F62E0B8D10E00F5F1F4F1B
:1002B0000F731127E02E8C8D8E110CC00FB607FC2A
:1002C000FACFE889F989808185FFF5CFCE010E94B8
:1002D0000A01F1CFEB8DEC0FFD2FF11DE35AFF4F1B
:1002E000F0829FB7F8940B8FEA89FB898081806246
:1002F000CFCFCF93DF93EC01888D8823B9F0AA8903
:10030000BB89E889F9898C9185FD03C0808186FDD0
:100310000DC00FB607FCF7CF8C9185FFF2CF80811F
:1003200085FFEDCFCE010E940A01E9CFDF91CF9189
:100330000895833081F028F4813099F08230A9F05B
:1003400008958730A9F08830C9F08430B1F48091E5
:1003500080008F7D03C0809180008F778093800024
:10036000089584B58F7784BD089584B58F7DFBCFC4
:100370008091B0008F778093B00008958091B00095
:100380008F7DF9CFCF93DF93282F30E0F901E2552D
:10039000FF4F8491F901E656FF4FD491F901EA57D6
:1003A000FF4FC491CC23A1F081110E949901EC2F41
:1003B000F0E0EE0FFF1FE458FF4FA591B491EC91D0
:1003C000ED2381E090E009F480E0DF91CF91089582
:1003D00080E090E0FACF1F93CF93DF93282F30E097
:1003E000F901E255FF4F8491F901E656FF4FD49190
:1003F000F901EA57FF4FC491CC23A9F0162F8111C0
:100400000E949901EC2FF0E0EE0FFF1FEE58FF4F16
:10041000A591B4918FB7F894EC91111108C0D095C3
:10042000DE23DC938FBFDF91CF911F910895DE2BE8
:10043000F8CFCF93DF9390E0FC01E656FF4F249175
:100440008A579F4FFC0184918823C9F090E0880F60
:10045000991FFC01E859FF4FA591B491FC01EE589A
:10046000FF4FC591D49161110DC09FB7F8948C9145
:10047000209582238C938881282328839FBFDF9136
:10048000CF910895623051F49FB7F8943C91822F38
:10049000809583238C93E8812E2BEFCF8FB7F89430
:1004A000EC912E2B2C938FBFEACF8E3008F08E501C
:1004B0008770806480937C0080917A008064809350
:1004C0007A0080917A0086FDFCCF8091780090912F
:1004D00079000895089590E080E00895FC0144813A
:1004E0005581668177812FB7F89480913B01909177
:1004F0003C01A0913D01B0913E012FBF4817590723
:100500006A077B07C8F48FB7F89440913B0150917C
:100510003C0160913D0170913E018FBF80819181CE
:10052000A281B381840F951FA61FB71F8483958373
:10053000A683B78381E0089580E00895FC0140839D
:100540005183628373832FB7F89440913B0150919C
:100550003C0160913D0170913E012FBF4483558362
:10056000668377830895CF93DF93EC0160E08E81FB
:100570000E94EB0161E08E810E94EB0160E08E81C0
:100580000E94EB018BE891E00197F1F7DF91CF91A9
:100590000895CF92DF92EF92FF920F931F93CF9324
:1005A000DF936C017C0187E0E80EF11CD0E0C0E035
:1005B000062F10E0B8010C2E02C0759567950A94BD
:1005C000E2F76170F70181917F010E94EB012196B2
:1005D000C430D10579F7C601DF91CF911F910F91FA
:1005E000FF90EF90DF90CF900C94B302CF92DF9208
:1005F000EF92FF920F931F93CF93DF93EC01F62EB0
:10060000642F8C810E94EB018D818F3F19F060E097
:100610000E94EB010F2D10E08F8584FF25C06E0135
:1006200087E0C80ED11CF12CE12CB8010E2C02C0C1
:10063000759567950A94E2F76170F60181916F01F3
:100640000E94EB01FFEFEF1AFF0A88E0E816F104C1
:1006500061F7CE01DF91CF911F910F91FF90EF9045
:10066000DF90CF900C94B302B80184E07595679544
:100670008A95E1F7CE010E94C9026F2DCE01DF916C
:10068000CF911F910F91FF90EF90DF90CF900C943E
:10069000C90240E0682F89EF91E00C94F602CF93F5
:1006A000DF93823029F490910802986090930802B9
:1006B00080930C0210920D0280E480930E0280E180
:1006C00080930F0280E58093100261E08091FD012C
:1006D0000E9419028091FE018F3F19F061E00E9493
:1006E000190261E08091FF010E941902C9EFD1E077
:1006F0009E01295F31408091080284FD0BC084E097
:1007000090E021962817390744F461E08E810E9419
:100710001902EECF88E090E0F4CF8BE39DE00197E3
:10072000F1F760E08091FD010E94EB0160E08091B3
:10073000FF010E94EB018091FE018F3F19F060E004
:100740000E94EB018091080284FD39C063E089EFCB
:1007500091E00E94C902CBE4D6E4CE010197F1F703
:1007600063E089EF91E00E94C9022197F1F763E00D
:1007700089EF91E00E94C90283E592E00197F1F7C9
:1007800062E089EF91E00E94C902809108028062D4
:100790000E94490384E0809309028CE00E9449038F
:1007A00081E00E9449038BE39FE10197F1F782E02A
:1007B00080930A0286E0DF91CF910C944903806216
:1007C0000E9449038BE496E40197F1F780910802B7
:1007D00080620E94490383E592E00197F1F78091DE
:1007E000080280620E944903D0CF90910C026917E1
:1007F00010F06FEF690FE62FF0E0E750FE4F94899D
:10080000890F80680C94490341E00E94F60281E060
:1008100090E008958F929F92AF92BF92EF92FF92D5
:100820000F931F93CF93DF93CDB7DEB7A1970FB68A
:10083000F894DEBF0FBECDBF7C01FA01CB0119A237
:10084000223008F42AE08E010F5D1F4F822E912C7A
:10085000B12CA12CBF01A50194010E945F09F901EF
:10086000CA016A3074F5605DD8016E938D01232B47
:10087000242B252B79F790E080E0109789F0FD017B
:1008800001900020E9F73197AF014A1B5B0BD701BC
:10089000ED91FC910280F381E02DB801C70109952B
:1008A000A1960FB6F894DEBF0FBECDBFDF91CF91FA
:1008B0001F910F91FF90EF90BF90AF909F908F90FE
:1008C0000895695CD1CFCF92DF92EF92FF920F93A0
:1008D0001F93CF93DF936B01770FEE08FF08F7FEAE
:1008E0001FC0EC01E881F9810190F081E02D6DE2FB
:1008F00009958C0144275527BA014C195D096E09E9
:100900007F092AE0CE010E940A04800F911FDF9127
:10091000CF911F910F91FF90EF90DF90CF900895AE
:100920002AE0B701A601DF91CF911F910F91FF90AF
:10093000EF90DF90CF900C940A04FC01019000200E
:10094000E9F73197AF01481B590BBC0189EF91E0E2
:100950000C948C001F920F920FB60F9211242F93BC
:100960003F934F935F936F937F938F939F93AF9337
:10097000BF93EF93FF938CE591E00E940A01FF91F2
:10098000EF91BF91AF919F918F917F916F915F9107
:100990004F913F912F910F900FBE0F901F90189580
:1009A0001F920F920FB60F9211242F938F939F9344
:1009B000EF93FF93E0916C01F0916D018081E091E4
:1009C0007201F091730182FD1BC0908180917501CD
:1009D0008F5F8F7320917601821741F0E09175014E
:1009E000F0E0E45AFE4F958F80937501FF91EF91EF
:1009F0009F918F912F910F900FBE0F901F90189580
:100A00008081F4CF1F920F920FB60F9211242F9373
:100A10003F938F939F93AF93BF9380913B019091AE
:100A20003C01A0913D01B0913E0130913A0123E09B
:100A3000230F2D3758F50196A11DB11D20933A01C2
:100A400080933B0190933C01A0933D01B0933E0104
:100A50008091360190913701A0913801B091390110
:100A60000196A11DB11D8093360190933701A0938B
:100A70003801B0933901BF91AF919F918F913F9110
:100A80002F910F900FBE0F901F90189526E8230FFF
:100A90000296A11DB11DD2CFECE5F1E013821282C6
:100AA00088EE93E0A0E0B0E084839583A683B783CB
:100AB0008AE091E09183808385EC90E0958784873C
:100AC00084EC90E09787868780EC90E0918B808B18
:100AD00081EC90E0938B828B82EC90E0958B848B01
:100AE00086EC90E0978B868B118E128E138E148E6F
:100AF000E9EFF1E0138212828CE191E0918380832F
:100B000083E084838FEF858382E0868388E0878318
:100B100089E080878AE081878BE08287138614864C
:100B200015861686178681E00C944F03789484B559
:100B3000826084BD84B5816084BD85B5826085BDD9
:100B400085B5816085BD80916E00816080936E0067
:100B50001092810080918100826080938100809159
:100B6000810081608093810080918000816080930A
:100B700080008091B10084608093B1008091B000CA
:100B800081608093B00080917A00846080937A00C5
:100B900080917A00826080937A0080917A008160EF
:100BA00080937A0080917A00806880937A00109216
:100BB000C10082E00E944F0384E291E00E949D0404
:100BC00061E080E00E94F5038BE291E00E949D04C9
:100BD00061E087E00E94190261E086E00E9419024C
:100BE00060E08EE00E94190260E08FE00E9419022E
:100BF00061E08CE00E94190261E08DE00E94190220
:100C000062E085E00E94190210925601109255018F
:100C100088E090E00E948709EC0148EE53E060E034
:100C200070E00E949E02D0934A01C093490188E07F
:100C300090E00E948709EC0148EE53E060E070E02C
:100C40000E949E02D0934201C093410188E090E04F
:100C50000E948709EC014AEF50E060E070E00E94DA
:100C60009E02D0934601C093450188E090E00E9427
:100C70008709EC0144E650E060E070E00E949E02CB
:100C8000D0934401C093430188E090E00E9487091B
:100C9000EC0144E650E060E070E00E949E02D093D8
:100CA0004001C0933F0188E090E00E948709EC0179
:100CB0004AE050E060E070E00E949E02D093540150
:100CC000C093530188E090E00E9487094AE050E019
:100CD00060E070E00E949E02E0916C01F0916D0175
:100CE00082E08083E0916801F09169011082E091D7
:100CF0006A01F0916B018FEC808310927401E09196
:100D00007001F091710186E08083E0916E01F091B5
:100D10006F01808180618083E0916E01F0916F01AD
:100D2000808188608083E0916E01F0916F01808105
:100D300080688083E0916E01F0916F0180818F7DEA
:100D4000808388248A9443E0942EA12CB12C50E017
:100D5000C52E50E0D52E332433948EE00E945502E8
:100D600090935B0180935A018FE00E94550290930B
:100D700059018093580185E00E94C201892B09F036
:100D800045C180915701811141C161E080915501B8
:100D900090915601892B09F060E0862F90E09093A6
:100DA000560180935501309257018DE00E94EB016E
:100DB00080915301909154010E946E02882309F49E
:100DC00086C060915A0170915B01809151019091B0
:100DD00052016817790781F1072E000C880B990BD7
:100DE00033E0660F771F881F991F3A95D1F7A50149
:100DF00094010E94400929013A0182E0480E511CE9
:100E0000611C711C5092500140924F0160E08AE0D9
:100E1000481651040CF008C186E00E94F503B201A7
:100E200089EF91E00E94630460E087E00E94F5038F
:100E300083E391E00E949D046091580170915901F3
:100E400080914D0190914E016817790781F1072E2D
:100E5000000C880B990B23E0660F771F881F991FE2
:100E60002A95D1F7A50194010E94400929013A0170
:100E700082E0480E511C611C711C50924C01409242
:100E80004B0161E08AE0481651040CF0D6C087E0BF
:100E90000E94F503B20189EF91E00E94630461E0D2
:100EA00088E00E94F50383E391E00E949D04809115
:100EB0005A0190915B01909352018093510180916E
:100EC00058019091590190934E0180934D0180916A
:100ED000550190915601019709F04CC100914F01C5
:100EE00010915001101611060CF044C180914B0175
:100EF00090914C01181619060CF03CC1E090490184
:100F0000F0904A01C7010E946E02C0914701D09142
:100F10004801882309F49AC0EF2809F0B2C0C091B3
:100F20004501D0914601CE010E946E0220914701F9
:100F300030914801882309F4AEC0CD2B69F080912F
:100F4000490190914A01892B09F08BC12F5F3F4FD6
:100F50003093480120934701C0914301D09144014F
:100F6000CE010E946E0220914701309148018823F2
:100F700009F4B8C0CD2B69F08091450190914601EC
:100F8000892B09F073C12F5F3F4F309348012093A5
:100F900047010091410110914201C8010E946E0277
:100FA000C0914701D0914801882351F001151105E6
:100FB00039F08091430190914401892B09F4B5C027
:100FC00080914B0190914C01C817D90709F0B6C028
:100FD000012B09F4B3C08091430190914401892B06
:100FE00009F0ACC0BE018CE591E00E946304109250
:100FF00048011092470180914101909142010E9465
:10100000230A109242011092410198C085E00E948B
:10101000C201019709F0CCCE80915701882309F4D1
:10102000C7CE10925701C4CE86E00E94F503B201EC
:1010300089EF91E00E946304FFCE87E00E94F503F0
:10104000B20189EF91E00E94630431CF0C171D07B4
:1010500009F065CFEF2809F462CFB8018CE591E083
:101060000E94630410924801109247018091490147
:1010700090914A010E94230A10924A01109249015C
:101080004ECF61E08CE00E94EB012196D0934801A5
:10109000C093470144CF2230310509F05DCFCD2BFD
:1010A00009F45ACF8091490190914A01892B09F0A6
:1010B00053CF60E08CE00E94EB0162E070E08CE5D1
:1010C00091E00E94630410924801109247018091C0
:1010D0004501909146010E94230A10924601109208
:1010E00045013ACF2230310509F053CFCD2B09F419
:1010F00050CF8091450190914601892B09F049CF4D
:1011000062E070E08CE591E00E9463041092480177
:101110001092470180914301909144010E94230A5B
:10112000109244011092430134CF61E08DE00E949F
:10113000EB012196D0934801C0934701C0913F0134
:10114000D0914001CE010E946E0220914701309162
:1011500048018823D9F0CD2B69F08091410190910D
:101160004201892B09F087C02F5F3F4F3093480120
:1011700020934701C114D10409F4EFCD0E94F60079
:10118000882309F4EACD0E940000E7CD2230310522
:1011900089F7CD2B79F38091410190914201892B00
:1011A00049F760E08DE00E94EB0162E070E08CE5C1
:1011B00091E00E94630410924801109247018091CF
:1011C0003F01909140010E94230A88E090E00E9434
:1011D0008709EC0148EE53E060E070E00E949E0257
:1011E000D0934A01C093490188E090E00E948709AA
:1011F000EC0148EE53E060E070E00E949E02D09364
:101200004201C093410188E090E00E948709EC010F
:101210004AEF50E060E070E00E949E02D0934601E9
:10122000C093450188E090E00E948709EC0144E604
:1012300050E060E070E00E949E02D0934401C093B1
:10124000430188E090E00E948709EC0144E650E009
:1012500060E070E00E949E02D0934001C0933F0185
:1012600089CF2230310509F077CE1CCF22303105ED
:1012700009F08FCE3ECF2230310509F07BCF8BCFE6
:10128000052E97FB1EF400940E94570957FD07D0C6
:101290000E945F0907FC03D04EF40C945709509547
:1012A0004095309521953F4F4F4F5F4F0895909552
:1012B0008095709561957F4F8F4F9F4F0895A1E264
:1012C0001A2EAA1BBB1BFD010DC0AA1FBB1FEE1FC0
:1012D000FF1FA217B307E407F50720F0A21BB30B0B
:1012E000E40BF50B661F771F881F991F1A9469F787
:1012F00060957095809590959B01AC01BD01CF01E3
:101300000895EE0FFF1F0590F491E02D09940F93BF
:101310001F93CF93DF938230910510F482E090E029
:10132000E0911302F091140230E020E0B0E0A0E080
:10133000309799F42115310509F44AC0281B390B5F
:1013400024303105D8F58A819B816115710589F1B9
:10135000FB0193838283FE0111C040815181028190
:10136000138148175907E0F04817590799F4109767
:1013700061F012960C93129713961C933296CF013C
:10138000DF91CF911F910F91089500931302109355
:101390001402F4CF2115310551F04217530738F0EC
:1013A000A901DB019A01BD01DF01F801C1CFEF0105
:1013B000F9CF9093140280931302CDCFFE01E20F78
:1013C000F31F819391932250310939832883D7CF1A
:1013D0002091110230911202232B41F4209102013D
:1013E00030910301309312022093110220910001E9
:1013F000309101012115310541F42DB73EB74091DF
:10140000040150910501241B350BE0911102F0916C
:101410001202E217F307A0F42E1B3F0B281739071F
:1014200078F0AC014E5F5F4F2417350748F04E0F40
:101430005F1F5093120240931102819391939FCFAB
:10144000F0E0E0E09CCFCF93DF930097E9F0FC0160
:10145000329713821282A0911302B0911402ED010F
:1014600030E020E01097A1F420813181820F931F9A
:1014700020911102309112022817390709F061C03A
:10148000F0931202E0931102DF91CF910895EA01E7
:10149000CE17DF07E8F54A815B819E0141155105B2
:1014A000B1F7E901FB83EA8349915991C40FD51F34
:1014B000EC17FD0761F4808191810296840F951FDE
:1014C000E90199838883828193819B838A83F0E0F9
:1014D000E0E012968D919C9113970097B9F52D91AC
:1014E0003C911197CD010296820F931F209111021A
:1014F000309112022817390739F6309751F51092BA
:10150000140210921302B0931202A0931102BCCFE6
:10151000D383C28340815181840F951FC817D90797
:1015200061F44E5F5F4F88819981480F591F518345
:1015300040838A819B81938382832115310509F041
:10154000B0CFF0931402E09313029ECFFD01DC01B3
:0C155000C0CF13821282D7CFF894FFCFD7
:10155C00000015028000000000002C018C00B90076
:10156C007901EA00C800DC000000000004048C00D3
:10157C006B026A0250726573733A00416C6976694A
:06158C006F3A0020000090
:107E0000112484B714BE81FFF0D085E080938100F7
:107E100082E08093C00088E18093C10086E0809377
:107E2000C20080E18093C4008EE0C9D0259A86E02C
:107E300020E33CEF91E0309385002093840096BBD3
:107E4000B09BFECF1D9AA8958150A9F7CC24DD24C4
:107E500088248394B5E0AB2EA1E19A2EF3E0BF2EE7
:107E6000A2D0813461F49FD0082FAFD0023811F036
:107E7000013811F484E001C083E08DD089C08234E0
:107E800011F484E103C0853419F485E0A6D080C0E4
:107E9000853579F488D0E82EFF2485D0082F10E0AE
:107EA000102F00270E291F29000F111F8ED06801E7
:107EB0006FC0863521F484E090D080E0DECF843638
:107EC00009F040C070D06FD0082F6DD080E0C81688
:107ED00080E7D80618F4F601B7BEE895C0E0D1E017
:107EE00062D089930C17E1F7F0E0CF16F0E7DF06D8
:107EF00018F0F601B7BEE89568D007B600FCFDCFD4
:107F0000A601A0E0B1E02C9130E011968C91119780
:107F100090E0982F8827822B932B1296FA010C0160
:107F200087BEE89511244E5F5F4FF1E0A038BF0790
:107F300051F7F601A7BEE89507B600FCFDCF97BE46
:107F4000E89526C08437B1F42ED02DD0F82E2BD052
:107F50003CD0F601EF2C8F010F5F1F4F84911BD097
:107F6000EA94F801C1F70894C11CD11CFA94CF0C13
:107F7000D11C0EC0853739F428D08EE10CD085E9AC
:107F80000AD08FE07ACF813511F488E018D01DD067
:107F900080E101D065CF982F8091C00085FFFCCF94
:107FA0009093C60008958091C00087FFFCCF809118
:107FB000C00084FD01C0A8958091C6000895E0E648
:107FC000F0E098E1908380830895EDDF803219F02E
:107FD00088E0F5DFFFCF84E1DECF1F93182FE3DFCA
:107FE0001150E9F7F2DF1F91089580E0E8DFEE27F6
:047FF000FF270994CA
:027FFE00040479
:0400000300007E007B
:00000001FF
